:100000000C946B000C94E20B0C94BB0B0C949300BF
:100010000C9493000C9493000C9493000C94090C92
:100020000C9493000C9493000C94A50E0C949300E4
:100030000C9493000C94570E0C9493000C94930022
:100040000C94CD180C9493000C94B10C0C948B0C64
:100050000C9493000C9493000C9493000C949300D4
:100060000C94E30C0C9493007C3C3E5E2B3D3F2FA4
:100070005B5D3B2C2A225C0002000000002400276C
:10008000002A0000000000250028002B00000000CE
:1000900000230026002900040404040404040402CC
:1000A0000202020202030303030303010204081015
:1000B00020408001020408102001020408102000E2
:1000C0000000080002010000030407000000000017
:1000D00000000000171911241FBECFEFD8E0DEBFCB
:1000E000CDBF12E0A0E0B1E0E2E0F0E402C0059094
:1000F0000D92A435B107D9F726E0A4E5B2E001C01E
:100100001D92A93FB207E1F710E0CBE6D0E004C0B2
:100110002197FE010E94B71ECA36D107C9F70E9477
:10012000A6190C94FF1F0C940000282F3091C102D7
:10013000313208F04AC080919E028111FCCF90912B
:10014000EF0542E040939E0220939D022FEF209303
:100150009C0210929B0230939A02E1EAF2E0AAE735
:10016000B2E020E0321721F041914D932F5FFACF9A
:100170001092790220917902990F922B9093790233
:1001800090917802913061F4109278029091790206
:100190009093BB009091BC0093FDF8CF95EC01C00B
:1001A00095EE9093BC0090919E029230E1F3909175
:1001B0009C029F3F79F080919C02803241F08091B7
:1001C0009C02803331F084E005C081E003C082E00E
:1001D00001C083E01092A0021092C10210929F020F
:1001E00008954F925F926F927F92AF92BF92CF929B
:1001F000DF92EF92FF920F931F93CF93DF9300D084
:1002000000D0CDB7DEB78C0149835A836B837C83E2
:100210005901C12CD12C7601412C82E0582E612C41
:10022000712C49815A816B817C819E012F5F3F4FE8
:10023000C8010E944710882351F1D301C201F8017F
:10024000058404C0880F991FAA1FBB1F0A94D2F708
:10025000C80ED91EEA1EFB1E49815A816B817C8122
:100260008789803129F088EF9FEFAFEFBFE004C0AE
:1002700088EF9FEFA0E0B0E0481759076A077B07B7
:1002800080F2F501C082D182E282F38281E00F9098
:100290000F900F900F90DF91CF911F910F91FF90D2
:1002A000EF90DF90CF90BF90AF907F906F905F9076
:1002B0004F900895CF93DF93EC0180E2689FF001A7
:1002C0001124EE53FD4F6A8B809100019091010142
:1002D000A0910201B09103018E879F87A88BB98BF3
:1002E0004489558960E070E0BA0155274427828D22
:1002F000938DA0E0B0E0482B592B6A2B7B2B4F8BC2
:10030000588F698F7A8F8385887151F4848D958D8C
:10031000A68DB78D8B8B9C8BAD8BBE8B81E00EC079
:10032000803111F080E015C09E012D5E3F4F8B8D16
:100330009C8D0E94F1008823A9F384E08D8381E0E5
:100340008C831E821F82188619861A861B861C863D
:100350001D86DF91CF910895CF93DF93009779F0B9
:10036000FC0101900020E9F73197AF01481B590BC0
:10037000BC0184EC94E00E94E209EC0102C0C0E000
:10038000D0E042E050E06AEB71E084EC94E00E943F
:10039000E2098C0F9D1FDF91CF910895CF93DF93DA
:1003A000FC012581222311F080E049C0EC018091FD
:1003B000AD058031C1F482E08583178A108E118EDD
:1003C000128E8091AE059091AF05A0E0B0E025E0DF
:1003D000880F991FAA1FBB1F2A95D1F7838B948B77
:1003E000A58BB68B19C08032F9F683E085834091E6
:1003F000B0055091B1056091B2057091B305478B7E
:10040000508F618F728F9F012D5E3F4F86E995E07F
:100410000E94F100882341F286E995E09C8F8B8F42
:1004200081E08C831E821F82188619861A861B869D
:100430001C861D861E861F86188A198A1A8ADF91D5
:10044000CF9108958F929F92AF92BF92CF92DF92F9
:10045000EF92FF92CF93DF93C82F8AE895E09093B5
:10046000C3048093C204CC2369F1C53010F080E04E
:100470000CC140E060E070E0CB010E945D0F88237A
:10048000B1F320E1C29FC00111248E549D4FFC01A5
:10049000E254FE4F20812F7751F73C9640815181E5
:1004A00062817381443651056105710500F334970B
:1004B000C080D180E280F380C114D104E104F10452
:1004C00021F4D5CFC12CD12C760140E0C701B60173
:1004D0000E945D0F882359F28091CD029091CE0247
:1004E0008115924021F6A091D202AA2309F4BFCF30
:1004F0006091D0027091D1026115710509F4B7CFF6
:100500002091CF02222309F4B2CFA093A805209313
:100510009A0580E030E041E050E0C82FFA01082E53
:1005200002C0EE0FFF1F0A94E2F72E173F0739F0C3
:100530008F5FC83091F789E08093A30598CF8093AF
:10054000A3052091D8023091D9022115310519F067
:1005500040E050E008C02091E6023091E70240916F
:10056000E8025091E90220939B0530939C0540934B
:100570009D0550939E0546015701860E971EA11CAE
:10058000B11C8092A9059092AA05A092AB05B092E9
:10059000AC05E091D302F091D402F093AF05E09363
:1005A000AE05B0E00E94671E860E971EA81EB91EFB
:1005B0008092B0059092B105A092B205B092B305B9
:1005C00085E0EE0FFF1F8A95E1F7E150FE4FEF2F18
:1005D000FF27E6958E0E9F1EA11CB11C8092A405DC
:1005E0009092A505A092A605B092A7052091D502EC
:1005F0003091D6022115310521F0A90160E070E0AB
:1006000008C04091E2025091E3026091E4027091CF
:10061000E502D701C60188199909AA09BB09840F07
:10062000951FA61FB71F04C0B695A79597958795E8
:10063000CA95D2F780939F059093A005A093A1053A
:10064000B093A205853F2FE09207A105B10510F4F4
:100650008CE018C0853F9F4FA105B10510F480E1E3
:1006600011C08091EE029091EF02A091F002B09142
:10067000F1028093B0059093B105A093B205B093B9
:10068000B30580E28093AD0581E0DF91CF91FF90CB
:10069000EF90DF90CF90BF90AF909F908F90089594
:1006A000CF93DF93D82FC92F80917702806291E09A
:1006B00090939F028093EF051092A0021092C102C6
:1006C00062E181E695E00E947B0B6D2F81E695E06B
:1006D0000E947B0B6C2F81E695E00E947B0B81E0F2
:1006E000DF91CF910C949500CF93C62F9091770214
:1006F000906221E020939F029093EF051092A00258
:100700001092C102682F81E695E00E947B0B6C2F4E
:1007100081E695E00E947B0B81E0CF910C949500DF
:1007200090917702906221E020939F029093EF05D1
:100730001092A0021092C102682F81E695E00E94FB
:100740007B0B81E00E94950080919E028111FCCF7D
:100750008091770291E090939E0290939D022FEFFB
:1007600020939C0210929B0210929A02909379021D
:10077000909179028062880F892B80937902809111
:100780007802813061F4109278028091790280932E
:10079000BB008091BC0083FDF8CF85EC01C085EEE5
:1007A0008093BC0080919E028130E1F380919B0296
:1007B000811103C090919B0201C091E0AAE7B2E0D1
:1007C000E7E5F2E080E0891721F02D9121938F5F1A
:1007D000FACF109256028093550281E695E00E946E
:1007E000320B08951F93CF93DF93C82F162FD82F66
:1007F000D770883010F085E101C084E10E94900339
:1008000041E050E060E070E004C0440F551F661FF7
:10081000771FDA95D2F7112319F0682F642B03C0E4
:100820004095642F6823C83010F083E101C082E155
:10083000DF91CF911F910C94740320918605309124
:1008400087052115310541F0AB01BC01C9010E94AA
:100850001E1191E0811101C090E0892F0895EF925F
:10086000FF920F931F93CF93DF93EC017B018A01DB
:100870001B821A8288EE93E0A0E0B0E08C839D8317
:10088000AE83BF8383E591E0998388838DE190E017
:100890000E94BD1E9A8F898F009779F02DE1F70194
:1008A000DC0101900D922A95E1F74CE050E0B8018F
:1008B000CE010C960E94F01F188EDF91CF911F91F0
:1008C0000F91FF90EF900895AF92BF92CF92DF9279
:1008D000EF92FF920F931F93CF93DF93CDB7DEB7C5
:1008E0002B970FB6F894DEBF0FBECDBF6C01FE0193
:1008F0003196CE010C967F0120E22193E817F9078B
:10090000E1F7DA0120E037E09D91992331F19E3241
:1009100031F43A3009F4AAC028E03AE0F5CFE8E62D
:10092000F0E08491882321F031969813FACF9EC08D
:10093000321708F49BC08FED890F8E3508F096C0F2
:1009400081E0820FF701E20FF11D2FE9290F2A3113
:1009500008F490529083282FD7CF8981803209F4F0
:1009600085C08B01FB01838D948DF601948F838F5D
:10097000FB01168217821086118612861386148652
:100980001586B12CF80182859385A485B5854389A8
:1009900054896589768984179507A607B70708F0F3
:1009A00065C025E0B695A795979587952A95D1F7C7
:1009B000F82FFF70AF2EF8018581823008F456C001
:1009C000C8010E943E0697FD51C0F80182859385BB
:1009D000A485B5854F96A11DB11D82879387A487F5
:1009E000B587F0E2AF9EB00111246E537D4F6115C3
:1009F0007105E1F1FB0180818823F1F0853E99F1D9
:100A00004BE050E0C7010E94E31F892B09F0BACFE9
:100A10006A2DC6012B960FB6F894DEBF0FBECDBF70
:100A2000DF91CF911F910F91FF90EF90DF90CF90CA
:100A3000BF90AF900C945A01B11018C0F601A28A71
:100A40008091000190910101A0910201B0910301F8
:100A500086879787A08BB18BFB018081882331F03B
:100A6000BB24B3948FCFB110FBCFE8CF80E02B969F
:100A70000FB6F894DEBF0FBECDBFDF91CF911F91AF
:100A80000F91FF90EF90DF90CF90BF90AF900895BF
:100A90000E94DE1FFC01DB0112968D919C91139741
:100AA0009383828385E691E09183808314968C9171
:100AB0001497848315968C911597858316964D917E
:100AC0005D916D917C9119974683578360877187FB
:100AD0001A964D915D916D917C911D974287538738
:100AE000648775871E964D915D916D917C915197AC
:100AF00046875787608B718B52968C915297828B69
:100B000053964D915D916D917C915697438B548B8B
:100B1000658B768B57964D915D916D917C915A972F
:100B2000478B508F618F728F5B968D919C915C97F4
:100B3000948F838F0895DC015996ED91FC915A971B
:100B40003097B9F083899489A589B6894285538500
:100B500064857585841B950BA60BB70B811520E862
:100B60009207A105B10538F08FEF9FE7A0E0B0E054
:100B7000089580E090E00895CF93DF931F92CDB762
:100B8000DEB76983DC01ED91FC910280F381E02DF9
:100B900041E050E0BE016F5F7F4F09950F90DF91FC
:100BA000CF910895089580E090E0089580911A060D
:100BB0008F5F80931A0691E0909309068230B1F41A
:100BC000809107068F5F809307068C3339F48091FC
:100BD00008068F5F8093080610920706809108062A
:100BE0008C3311F41092080610921A0680910901B4
:100BF00080958170809309010895FC01818D928D0B
:100C0000009711F00C94E5100895CF93DF93EC0159
:100C1000898D9A8D009739F481E090E09B838A83D7
:100C200080E090E00BC0FC01138212820E945915F3
:100C3000E98DFA8D22813381232B71F7DF91CF91DA
:100C4000089588E292E00E94AC0181E0809305065D
:100C5000089584E392E00E94AC0181E0809306064F
:100C600008958EBD00000DB407FEFDCF8EB508952A
:100C70008FEF0C9431068CBD9DBD0895CF93DF930B
:100C80001F92CDB7DEB741E050E0BE016F5F7F4FEE
:100C90000E94E813019719F4898190E002C08FEF58
:100CA0009FEF0F90DF91CF910895FC01818D928D80
:100CB000009711F00C943E068FEF9FEF08950F936D
:100CC0001F93CF93DF93FC01818D928D0097B9F034
:100CD000EF010E943E068C010F3F8FEF180791F045
:100CE000898D9A8DFC0142855385648575854150B7
:100CF0005109610971090E941E11C80105C080E0F7
:100D000090E002C08FEF9FEFDF91CF911F910F9185
:100D100008954F925F926F927F928F929F92AF92BF
:100D2000BF92CF92DF92EF92FF920F931F93CF93D8
:100D3000DF93CDB7DEB7C257D1090FB6F894DEBF47
:100D40000FBECDBF80910406843610F010920406C9
:100D500080910306843610F01092030680910606F7
:100D6000811105C080910506882309F41EC2909167
:100D7000F7058091FE05981709F441C010921B06F3
:100D800080916F008E7D80936F000E943617809156
:100D9000800087FF0EC0809188009091890040E01C
:100DA00050E02091FC053091FD054217530708F4EF
:100DB00069C280910C01806280930C0110928100C5
:100DC0001092800061E08091F7050E94CD1780911C
:100DD000F705863009F484C28E3209F483C2853067
:100DE00009F082C281E08093A0068DB581608DBD3F
:100DF0008CB58C7F8CBD8091F7058093FE05109299
:100E00001B0680916F008E7D80936F000E943617C5
:100E10001C821B8205E611E01A8309831E82CE0123
:100E200001960E94CE01BE016F5F7F4FCE01CB962F
:100E30000E944A0519A218A21F8F0E8F1BA221968D
:100E40008FAD2197811153C26C961FAE1EAE6C9769
:100E500088EE93E0A0E0B0E0A0968CAF9DAFAEAF7F
:100E6000BFAFA09783E591E06A969FAF8EAF6A9778
:100E7000E3961FAE1EAEE397A5961FAEA5976C96A0
:100E80008EAD9FAD6C979093700580936F05A09683
:100E90008CAD9DADAEADBFADA09780937105909325
:100EA0007205A0937305B0937405A4968CAD9DADA7
:100EB000AEADBFADA4978093750590937605A093D2
:100EC0007705B0937805A8E5B0E0AC0FBD1F1C9680
:100ED000E9E7F5E08D91819385E0E638F807D1F7F1
:100EE000E3968EAD9FADE39790938705809386053B
:100EF00068E070E080E090E00E941D0480917E0137
:100F000090917F01A0918001B091810189839A83A2
:100F1000AB83BC838E010F5F1F4F7E0195E0E90E0E
:100F2000F11C8DE695E00E945506F80121918F0194
:100F3000022E000C330B8217930709F4FAC168E103
:100F400070E080E090E00E941D048DE695E00E9434
:100F500055069093FB058093FA058DE695E00E9477
:100F6000550620E030E0382F8091FA059091FB057E
:100F7000822B932B9093FB058093FA056CE270E033
:100F800080E090E00E941D0480E490E090931D06B4
:100F900080931C0681E080931B0680910C01982FA2
:100FA0009F7790930C012091FA053091FB052B3F20
:100FB0003F4A30F020EC3DE53093FB052093FA05E5
:100FC0002091FA053091FB0540E050E086FFB6C164
:100FD00060E075E38CE090E00E94481E6AE0629F4A
:100FE000C001639F900D11249093FD058093FC0533
:100FF0008DE695E00E9455068C018DE695E00E94F5
:101000005F062091880030918900800F911F97FD25
:10101000019695958795992740E050E02817390764
:1010200008F09FC1B9016F5F7F4F6217730708F027
:101030008AC1FA01E25EF94F20834F5F5F4F40346F
:10104000510581F740E050E0B9016F5F7F4F6217B3
:10105000730708F07FC1FA01E25AF94F20834F5F0E
:101060005F4F4034510581F710929F0610920A019C
:1010700010920B0110929E06F8948091FC059091BD
:10108000FD05909387008093860082EB809380001B
:1010900089E18093810081E280936F00789489E4F4
:1010A00092E00E94AC0100E010E06FE7C62ED12C68
:1010B000E12CF12C0E94F11D4B015C010E94F11DFD
:1010C0002B013C01C501B401A70196010E94481EF5
:1010D0005B01BA2CAA24BB0CC301B20122E030E0B0
:1010E00040E050E00E94481E7695762F662777955F
:1010F0006795A60EB71E0E94F11DA70196010E94DA
:10110000481EC501860F971F0E9450030E94F11DC3
:101110000E94F11D26E030E040E050E00E94481EB1
:10112000FB01E658FE4F60E080810E94721769E182
:1011300070E080E090E00E94871882E00E944917EA
:10114000892B09F43BC183E00E944917892B09F4DC
:1011500035C10F5F1F4F043611050CF4ABCF60E0B3
:101160008EE00E94721760E08FE00E94721760E0CC
:1011700080E10E94721760E081E10E947217809105
:101180000606882329F0809104068F5F8093040669
:1011900080910506882329F0809103068F5F809354
:1011A00003061092060610920506309104068091FF
:1011B00003062AE0622F0E94AB1E082FA92FB0E081
:1011C000AA0FBB1FAA56BE4F832F0E94AB1E182F1B
:1011D000E92FF0E0EE0FFF1FEE57FE4F2D913C91EF
:1011E00080819181820F931F80589E4F0E945003EF
:1011F00060E087E00E94F20365E070E080E090E04C
:101200000E94871861E087E00E94F203A02FB0E0FF
:10121000AA0FBB1FAA56BE4FE12FF0E0EE0FFF1F33
:10122000EE57FE4F2D913C9180819181820F931F4B
:1012300080589E4F0E94500360E088E00E94F203B5
:1012400065E070E080E090E00E94871861E088E04F
:101250000E94F203CE58DF4F0FB6F894DEBF0FBEE8
:10126000CDBFDF91CF911F910F91FF90EF90DF9055
:10127000CF90BF90AF909F908F907F906F905F9036
:101280004F90089597FD06C0B9018217930720F487
:10129000BC0102C060E070E070938B0060938A0034
:1012A00097FD06C0B9018217930720F4BC0102C064
:1012B00060E070E0709389006093880022533109E8
:1012C0006AE070E0E0918400F0918500E217F30796
:1012D000C8F361507109B1F74F5F5F4F019761CD5E
:1012E00082E081CD83E07FCD1092A0067ECD40E4E8
:1012F00052E0BE01655C7F4FCE014E960E946404B1
:10130000882309F4A1CDCE01CB960E94B511BE0170
:10131000625E7F4FCE0101960E944A0540E452E092
:10132000BE016F5F7F4FCE01885A9F4F0E942F04EE
:10133000A6CDEE15FF0509F402CEF3CD60E07AE606
:1013400088E190E049CE9C016817790708F071CEDA
:101350009B016FCE9C016817790708F07CCE9B013A
:101360007ACEB901615071096817790728F06217C0
:10137000730718F49B0101C09C01FA01E25EF94F6A
:1013800020834F5F5F4F4034510559F740E050E0F4
:10139000B901615071096817790728F0621773075E
:1013A00018F49B0101C09C01FA01E25AF94F208315
:1013B0004F5F5F4F4034510559F756CE00E010E0C3
:1013C000C8CE0895CF92DF92EF92FF920F931F93B2
:1013D000CF93DF936C017A018B01C0E0D0E0CE1592
:1013E000DF0581F0D8016D918D01D601ED91FC9161
:1013F0000190F081E02DC6010995892B11F021960D
:10140000EECF7E01C701DF91CF911F910F91FF9029
:10141000EF90DF90CF900895FC01538D448D252FE0
:1014200030E0842F90E0821B930B541710F0CF967E
:10143000089501970895FC01918D828D981761F0B0
:10144000828DDF01A80FB11D5D968C91928D9F5FFB
:101450009F73928F90E008958FEF9FEF0895FC01A6
:10146000918D828D981731F0828DE80FF11D858D59
:1014700090E008958FEF9FEF0895FC01918D228DEC
:10148000892F90E0805C9F4F821B91098F73992771
:10149000089584EC94E00E943D0A21E0892B09F430
:1014A00020E0822F0895FC01848DDF01A80FB11D7B
:1014B000A35ABF4F2C91848D90E001968F7399278A
:1014C000848FA689B7892C93A089B1898C91837068
:1014D00080648C93938D848D981306C00288F38961
:1014E000E02D80818F7D80830895EF92FF920F938E
:1014F0001F93CF93DF93EC0181E0888F9B8D8C8DC0
:10150000981305C0E889F989808185FD26C0F62EEB
:101510000B8D10E00F5F1F4F0F731127E02E8C8D86
:10152000E8120CC00FB607FCFACFE889F989808170
:1015300085FFF5CFCE010E94530AF1CF8B8DFE01BE
:10154000E80FF11DE35AFF4FF0829FB7F8940B8F1D
:10155000EA89FB89808180620AC09FB7F894EE898E
:10156000FF896083E889F989808183708064808342
:101570009FBF81E090E0DF91CF911F910F91FF908D
:10158000EF900895CF93DF93EC01888D8823C9F005
:10159000EA89FB89808185FD05C0A889B9898C917C
:1015A00086FD0FC00FB607FCF5CF808185FFF2CF17
:1015B000A889B9898C9185FFEDCFCE010E94530A8D
:1015C000E7CFDF91CF91089580E090E0892B29F05B
:1015D0000E94490A81110C940000089585ED8093C2
:1015E000BC008091BC0084FDFCCF10929E02089547
:1015F0004091C706262F30E0240F311D21323105DE
:10160000DCF420919E022430C9F4FC0180E090E0DB
:10161000861758F43091C7062191DC01A955B94FBE
:10162000A30FB11D2C930196F3CF8091C706680FCD
:101630006093C70680E0089581E0089582E00895F0
:10164000089508950895E091560280915502E81793
:1016500030F4F0E0E95AFD4F808190E008958FEF7B
:101660009FEF08959091560280915502981750F47B
:10167000E92FF0E0E95AFD4F208130E09F5F909321
:10168000560202C02FEF3FEFC90108958091550225
:1016900090E020915602821B91090895CF92DF922B
:1016A000EF92FF920F931F93CF93DF937C01CB01B7
:1016B0008A0120919F02222389F0EB016B01C40E65
:1016C000D51ECC15DD0569F06991D701ED91FC912E
:1016D0000190F081E02DC7010995F3CF642F0E949E
:1016E000F80AC801DF91CF911F910F91FF90EF9001
:1016F000DF90CF900895CF93DF931F92CDB7DEB7E1
:10170000698320919F022223D1F02091C1022032CF
:1017100040F021E030E0FC013383228380E090E060
:1017200015C08091A002E82FF0E0EF55FD4F9981A0
:1017300090838F5F8093A0028093C10205C061E017
:10174000CE0101960E94F80A81E090E00F90DF91AF
:10175000CF910895CF93DF931F92CDB7DEB7698302
:1017600041E050E0BE016F5F7F4F0E9459150F901E
:10177000DF91CF9108951F920F920FB60F9211240F
:101780002F933F934F935F936F937F938F939F9389
:10179000AF93BF93EF93FF93E0910701F09108019E
:1017A0000995FF91EF91BF91AF919F918F917F919B
:1017B0006F915F914F913F912F910F900FBE0F90BE
:1017C0001F9018951F920F920FB60F9211242F930E
:1017D0003F934F935F936F937F938F939F93AF93B9
:1017E000BF93EF93FF93E0910501F09106010995F6
:1017F000FF91EF91BF91AF919F918F917F916F91E9
:101800005F914F913F912F910F900FBE0F901F90BE
:1018100018951F920F920FB60F9211242F933F939A
:101820004F935F936F937F938F939F93AF93BF93E8
:10183000EF93FF938091F3059091F405A091F50546
:10184000B091F605892B8A2B8B2B59F19091F005DD
:10185000E091F105F091F2058081892780838091E4
:10186000F3059091F405A091F505B091F6051816D1
:1018700019061A061B060CF03DC08091F3059091E5
:10188000F405A091F505B091F6050197A109B109FC
:101890008093F3059093F405A093F505B093F605B6
:1018A00029C080910401E8E7F0E0E4919FEF909374
:1018B0000401E130B9F098F0E230C9F49091700081
:1018C0009D7F9093700091E09093B0009091B10053
:1018D000987F94609093B1001092B30008C010926A
:1018E0006E0005C090916F009D7F90936F0060E047
:1018F0000E947217FF91EF91BF91AF919F918F91CD
:101900007F916F915F914F913F912F910F900FBEFB
:101910000F901F9018951F920F920FB60F921124DF
:101920002F933F934F935F936F937F938F939F93E7
:10193000AF93BF93EF93FF9384EC94E00E94530A1C
:10194000FF91EF91BF91AF919F918F917F916F9197
:101950005F914F913F912F910F900FBE0F901F906D
:1019600018951F920F920FB60F9211242F938F93F9
:101970009F93EF93FF93E091D404F091D50480817D
:10198000E091DA04F091DB0482FD12C09081809135
:10199000DD048F5F8F732091DE04821751F0E09198
:1019A000DD04F0E0EC53FB4F958F8093DD0401C024
:1019B0008081FF91EF919F918F912F910F900FBE9A
:1019C0000F901F9018951F920F920FB60F9211242F
:1019D0002F933F934F935F936F937F938F939F9337
:1019E000AF93BF93EF93FF938091B900887F8036C8
:1019F00009F49CC068F5883209F45BC090F480312A
:101A000009F454C038F4882309F4F6C0883009F486
:101A10004DC0F6C0883109F44CC0803209F45DC075
:101A2000EFC0803409F468C048F4803309F455C02D
:101A3000883309F0E5C080939C02D8C0803509F452
:101A40004FC0883509F45DC0883409F0D9C0D6C0CC
:101A5000883909F4C7C0A8F4883709F467C038F496
:101A6000883609F463C0803709F460C0C9C088387B
:101A700009F4B8C0803909F45FC0803809F0C0C0EB
:101A80005BC0803B09F486C038F4803A09F466C034
:101A9000883A09F47FC0B4C0803C09F4A7C0883CF0
:101AA00009F4A4C0883B09F48AC0AAC080917902D5
:101AB00010C090919B0280919A02981770F5E09166
:101AC0009B0281E08E0F80939B02F0E0E658FD4F71
:101AD00080818093BB0085EC86C080939C028EC081
:101AE000E0919B0281E08E0F80939B028091BB006E
:101AF000F0E0E658FD4F808390919B0280919A021E
:101B00006EC0E0919B0281E08E0F80939B028091DA
:101B1000BB00F0E0E658FD4F808380919D0281116B
:101B20006DC081E08093780284EA61C083E0809395
:101B30009E021092E906CFCF8091E906803208F02C
:101B400051C0E091E90681E08E0F8093E906809113
:101B5000BB00F0E0E753F94F8083BDCF85EC809365
:101B6000BC0010929E028091E906803230F4E09130
:101B7000E906F0E0E753F94F10826091E90670E062
:101B8000E091FF05F091000689EC96E0099510922E
:101B9000E90636C084E080939E021092C806109237
:101BA000C706E0910106F091020609958091C706EB
:101BB000811105C081E08093C7061092A706E091CD
:101BC000C80681E08E0F8093C806F0E0E955F94F12
:101BD00080818093BB009091C8068091C7069817BA
:101BE00008F479CF85E88093BC000AC085EC809327
:101BF000BC0010929E0204C010929C020E94EE0A49
:101C0000FF91EF91BF91AF919F918F917F916F91D4
:101C10005F914F913F912F910F900FBE0F901F90AA
:101C20001895CF92DF92EF92FF920F931F93CF936D
:101C3000DF93EC010E94C1186B017C018F819885B4
:101C4000A985BA850097A105B10509F14B815C8191
:101C50006D817E8197018601081B190B2A0B3B0BB6
:101C6000041715072607370790F4C816D906EA06A1
:101C7000FB06A0F480959095A095B0958C199D09D0
:101C8000AE09BF0984179507A607B70738F0E881A2
:101C9000F9810995CF82D886E986FA86DF91CF91BE
:101CA0001F910F91FF90EF90DF90CF9008951F92BA
:101CB0000F920FB60F9211248F939F93EF93FF9380
:101CC00080910C0186FD2EC0E0919F0680919E06BA
:101CD00090E4E99FF0011124E25EF94FE80FF11D55
:101CE000808190E090938B0080938A00909389008C
:101CF0008093880080919E068F5F80939E068091DE
:101D00009E068034C8F010929E06E0919F06F0E097
:101D1000E65FFE4F81E0808390919F068927809344
:101D20009F060AC09091A60681E089278093A606A7
:101D30008091A606882341F2FF91EF919F918F91A8
:101D40000F900FBE0F901F9018951F920F920FB615
:101D50000F9211242F933F934F935F936F937F9331
:101D60008F939F93AF93BF93EF93FF93E0919F0661
:101D700081E0E827F0E0E65FFE4F9081992309F4C7
:101D800050C090919F0689278093A50680916F008F
:101D90008F7D80936F0078948DE695E00E949B057F
:101DA00020911C0630911D0628173907E8F0809114
:101DB0000C0183FF07C06CE270E080E090E00E94BD
:101DC0001D042AC080916F008E7D80936F00E0918A
:101DD0008605F0918705309721F0858181110E9459
:101DE000361710921B061DC06091A50680E4689FFF
:101DF000B0011124625E794F80918605909187052C
:101E0000009721F040E450E00E94E813E091A5061D
:101E1000F0E0E65FFE4F108280916F008062809359
:101E20006F00FF91EF91BF91AF919F918F917F9143
:101E30006F915F914F913F912F910F900FBE0F9037
:101E40001F901895809154028823A9F140910001B8
:101E500050910101609102017091030122EC32E086
:101E60008091C2049091C3040E94ED14811102C0BC
:101E700080E008954091A1065091A2066091A306CA
:101E80007091A406411551056105710591F022EC90
:101E900032E08091C2049091C3040E94ED14882323
:101EA00039F31092A1061092A2061092A306109286
:101EB000A4061092540281E008958F929F92AF92EF
:101EC000BF92EF92FF920F931F93CF934B015C0150
:101ED000C42F8091000190910101A0910201B09165
:101EE000030188159905AA05BB0501F10E94220F7F
:101EF000811102C080E020C082ECE82E82E0F82E42
:101F000000E012E020E030E0B501A4018091C204BD
:101F10009091C3040E945413882361F380920001BE
:101F200090920101A0920201B092030180915402AB
:101F3000C82BC093540281E0CF911F910F91FF9065
:101F4000EF90BF90AF909F908F9008954F925F92C7
:101F50006F927F928F929F92AF92BF92CF92DF92B9
:101F6000EF92FF920F931F93CF93DF93EC014230D8
:101F700051056105710510F480E078C089859A8566
:101F8000AB85BC850196A11DB11D84179507A607D9
:101F9000B70790F3CB88DC88ED88FE888F89803185
:101FA00029F4BB27A72F962F852F09C0DB01CA0173
:101FB000E7E0B695A79597958795EA95D1F74801FB
:101FC00059012A013B01C80ED91EEA1EFB1E809151
:101FD000000190910101A0910201B0910301C81686
:101FE000D906EA06FB0681F48F898031A9F4B30192
:101FF000A201552766277727440F551FFA01EE5394
:10200000FD4F9182808219C040E0C701B6010E9455
:102010005D0F8111E9CFB0CFB301A2014F775527F2
:1020200066277727440F551F440F551FFA01EE53BB
:10203000FD4F80829182A282B3828091540281609E
:10204000809354028A89823080F08D819E81AF8195
:10205000B885C80ED91EEA1EFB1EC092A106D092FA
:10206000A206E092A306F092A40681E0DF91CF9150
:102070001F910F91FF90EF90DF90CF90BF90AF90A6
:102080009F908F907F906F905F904F9008958F9268
:102090009F92AF92BF92CF92DF92EF92FF920F93F7
:1020A0001F93CF93DF93FC0181859285A385B4852F
:1020B0000196A11DB11D84179507A607B70710F457
:1020C00080E05BC083889488A588B6888789803142
:1020D00029F4BB27A72F962F852F09C0DB01CA0142
:1020E000C7E0B695A79597958795CA95D1F7E90169
:1020F0006A017B018F01BC01CD01680D791D8A1D2C
:102100009B1D8090000190900101A0900201B09071
:102110000301681579058A059B0591F4F801878903
:102120008031A1F4DD24EE24FF24C601880F991F1D
:10213000FC01EE53FD4F80819181A0E0B0E018C01A
:1021400040E00E945D0F8111E9CFBACFE894C7F853
:10215000DD24EE24FF24C601880F991F880F991FE4
:10216000FC01EE53FD4F80819181A281B381BF704C
:1021700088839983AA83BB8381E0DF91CF911F91EC
:102180000F91FF90EF90DF90CF90BF90AF909F9016
:102190008F9008950F931F93CF93DF93EB010E94CD
:1021A000C1188B010E9438068F3F49F00E94C11868
:1021B000601B710B6C177D07A8F380E001C081E004
:1021C000DF91CF911F910F910895CF93DF93EC0191
:1021D0008D81882379F18C8187FF28C06E857F856A
:1021E0008889998941E00E945D0F882319F1EA8965
:1021F00080E2E89FF0011124EE53FD4F3097D1F0BB
:102200008D81823040F48B899C89AD89BE89848F11
:10221000958FA68FB78F8F89988DA98DBA8D938F43
:10222000828FB58BA48B8C818F778C83DF91CF913C
:102230000C94220F80E0DF91CF9108958F929F92AE
:10224000AF92BF92CF92DF92EF92FF920F931F93C4
:10225000CF93DF93EC018D81811102C080E078C0C3
:102260000B891C892D893E89041715072607370716
:10227000A8F36A017B01823029F4CA86DB86EC86EA
:10228000FD860DC0C114D104E104F10451F41E8295
:102290001F82188619861A861B861C861D8681E079
:1022A00057C08A849B84AC84BD84EB8DFC8D2585CE
:1022B00030E0275F3F4FB501A4014150510961094A
:1022C0007109022E04C076956795579547950A9433
:1022D000D2F7D701C6010197A109B10904C0B6958B
:1022E000A795979587952A95D2F784179507A607FE
:1022F000B70720F089288A288B2871F44F89588DD8
:10230000698D7A8D4E835F83688779874C015D0183
:102310008E010A5F1F4F16C0841B950BA60BB70BCF
:10232000F5CF4E815F816885798598018B8D9C8D75
:102330000E94471091E0891A9108A108B1088823EA
:1023400009F48CCF81149104A104B10451F795CF05
:10235000DF91CF911F910F91FF90EF90DF90CF9081
:10236000BF90AF909F908F900895CF93DF93EC0133
:102370000E94E510882311F01D8281E0DF91CF914A
:1023800008953F924F925F926F927F928F929F92A9
:10239000AF92BF92CF92DF92EF92FF920F931F9373
:1023A000CF93DF93CDB7DEB72C970FB6F894DEBF8F
:1023B0000FBECDBF5C01DC015B968D909C905C975D
:1023C0001696CD90DD90ED90FC901997C114D10434
:1023D000E104F10439F0BFEFCB1ADB0AEB0AFB0A88
:1023E000312C07C0F401C080D180E280F380332417
:1023F0003394F40181859285A385B4859C01AD0158
:102400002F5F3F4F4F4F5F4F29873A874B875C873E
:10241000260137011D821E821F821886F4018185E4
:102420009285A385B4852D813E814F8158852817DB
:1024300039074A075B0708F063C089859A85AB8531
:10244000BC858C159D05AE05BF0550F482E0C82EF5
:10245000D12CE12CF12C92E0492E512C612C712CC5
:102460009E012F5F3F4FB701A601C4010E94471094
:10247000882309F445C089819A81AB81BC81892B6D
:102480008A2B8B2B41F0260137019FEF491A590AFD
:10249000690A790A05C0C414D504E604F70491F06A
:1024A0002D813E814F8158852F5F3F4F4F4F5F4FAA
:1024B0002D833E834F8358873FEFC31AD30AE30A25
:1024C000F30AACCF0FEF1FEF2FEF3FE0B301A201F4
:1024D000C4010E94A60F882399F0D50116964D914C
:1024E0005D916D917C9119974115510561057105BB
:1024F00049F093018201C4010E94A60F811102C01C
:1025000080E02AC0D50116964D925D926D927C9224
:102510001997332051F0D301C2010196A11DB11DBD
:10252000F40180839183A283B383F5018789908D21
:10253000A18DB28D892B8A2B8B2B69F4D5015796EF
:102540004D925D926D927C925A9714968C9114974D
:10255000806814968C9381E02C960FB6F894DEBFB9
:102560000FBECDBFDF91CF911F910F91FF90EF90E4
:10257000DF90CF90BF90AF909F908F907F906F90A3
:102580005F904F903F9008958FB7F8948091EA063E
:102590008FBF0895CF93DF93EC018091EB068111FB
:1025A00009C081E08093EB068091880590918905B0
:1025B0000E943B0660E08C81DF91CF910C947217F2
:1025C00061E0FC0184810E9472178091EB06811109
:1025D0001092EB060895CF93DF93EC018E81882350
:1025E00089F08F8198859C012F5F3F4F38872F831B
:1025F0008230924018F40E943806F3CFCE010E9438
:10260000E0121E82DF91CF9108958F929F92AF9238
:10261000BF92FF920F931F93CF93DF93EC01F62E9F
:1026200049015A010E94EB12CE010E94CA126CE2CB
:1026300071E0CE010E94CA108F2D80640E94310685
:1026400008E110E0D501C401002E04C0B695A7959D
:10265000979587950A94D2F70E9431060850110980
:10266000083F8FEF180771F7FF2029F088E0F81274
:1026700004C087E803C085E901C08FEF0E943106DE
:1026800010E00E9438068A8787FF04C01F3F11F0C0
:102690001F5FF7CFDF91CF911F910F91FF90BF90F8
:1026A000AF909F908F900895AF92BF92CF92DF929C
:1026B000EF92FF920F931F93CF93DF93EC01690189
:1026C000C801820F931F8130924008F070C08E8144
:1026D000882371F088819981AA81BB81841795072D
:1026E000A607B70729F48F819885C816D906B0F5D3
:1026F000488359836A837B838B85833039F089E0F3
:10270000440F551F661F771F8A95D1F79A01AB01B9
:1027100061E1CE010E940513882319F083E08D83C7
:1027200046C00E94C1185B010E9438068A878F3F0D
:1027300049F40E94C1186A197B096D327140A0F3F7
:102740008FE003C08E3F31F08DE08D83CE010E947B
:10275000E0122DC018861F8281E08E838F819885BC
:102760008C159D0540F40E9438068F81988501964E
:1027700098878F83F3CF6701E00EF11EEC14FD0400
:1027800031F00E943806F60181936F01F7CF8F81F7
:102790009885080F191F18870F838985882319F0DA
:1027A0000115124048F0CE010E94EB1205C0CE0187
:1027B0000E94E01280E001C081E0DF91CF911F9183
:1027C0000F91FF90EF90DF90CF90BF90AF90089562
:1027D0002F923F924F925F926F927F928F929F9231
:1027E000AF92BF92CF92DF92EF92FF920F931F931F
:1027F000CF93DF93EC016B014A018D81811103C0FE
:102800008FEF9FEFD7C08C8180FFFACF4B885C8819
:102810006D887E884A855B856C857D85C401A0E0D6
:10282000B0E093018201041B150B260B370B081730
:1028300019072A073B0718F44201841A950A540124
:102840001E0126E0220E311CA114B10409F47EC041
:102850004A855B856C857D852A0181E05822ED8162
:102860008B8D9C8D8A019B01F9E0369527951795F4
:102870000795FA95D1F7E23061F4FC01828D938DD2
:10288000A48DB58DBC01CD01600F711F821F931FF8
:102890003FC0FC0174807A94702241145104C9F441
:1028A000711017C0452B462B472B49F48F89988D03
:1028B000A98DBA8D8E839F83A887B9870AC04E8160
:1028C0005F816885798591010E944710882309F40A
:1028D00097CFEB8DFC8D8E819F81A885B98502975E
:1028E000A109B109058404C0880F991FAA1FBB1F45
:1028F0000A94D2F74685578560897189840F951FA0
:10290000A61FB71FBC01CD01670D711D811D911D53
:1029100020E032E02419350935012A153B0508F479
:1029200039012C8126FD04C06114F2E07F0681F498
:1029300000910001109101012091020130910301E9
:102940006017710782079307B1F402C0C40132C057
:1029500040E00E945D0F882309F452CFF201EE534C
:10296000FD4FD601CF01860D971D8E179F0789F069
:1029700021912D93FACF760183019201AB01BC0125
:102980008091C2049091C3040E945413882309F4D7
:1029900037CFC60CD71C8A859B85AC85BD85860D37
:1029A000971DA11DB11D8A879B87AC87BD87A6187F
:1029B000B7084ACFDF91CF911F910F91FF90EF9011
:1029C000DF90CF90BF90AF909F908F907F906F904F
:1029D0005F904F903F902F900895EF92FF920F934A
:1029E0001F93CF93DF93EC017901411551056105E8
:1029F000710511F482E13CC08B85833039F089E0A8
:102A0000440F551F661F771F8A95D1F79A01AB01B6
:102A100068E1CE010E940513882311F084E028C0EC
:102A20008EEF0E94310687018EEFF81AF80181912E
:102A30008F010E943106E016F106C1F78FEF0E9468
:102A400031068FEF0E9431060E9438068A878F7107
:102A5000853031F081E18D83CE010E94E01209C002
:102A600068E572E0CE010E94CA10811107C085E1BD
:102A70008D83CE010E94E01280E014C020E030E09F
:102A8000A9016DE0CE010E940513811109C00E94C9
:102A90003806811105C0CE010E94E01281E002C01B
:102AA00084E1E6CFDF91CF911F910F91FF90EF90DE
:102AB00008952F923F924F925F926F927F928F92E2
:102AC0009F92AF92BF92CF92DF92EF92FF920F93BD
:102AD0001F93CF93DF9300D000D0CDB7DEB78C012A
:102AE0005B011A01DC0115968C9115978130C9F4B0
:102AF00014968C9181FF15C082FF1DC0F801438997
:102B000054896589768982859385A485B5858417DE
:102B10009507A607B70779F0C8010E941E11811119
:102B20000AC081E090E0D80113969C938E9312978F
:102B300080E090E036C1610183C05B968D919C91ED
:102B40005C97FC0174802FEF270D2A013B0139E0CF
:102B500076946794579447943A95D1F7722E7420DF
:102B60007A01F1E0FF22772009F476C080E092E05C
:102B70008E199F0946018C159D0508F44C01D8015A
:102B80005B962D913C915C9716968D919D910D9041
:102B9000BC91A02D0297A109B109F901058404C0D7
:102BA000880F991FAA1FBB1F0A94D2F74685578525
:102BB00060897189840F951FA61FB71F9C01AD0105
:102BC000270D311D411D511D29013A01811432E0AB
:102BD000930609F088C08091000190910101A091B5
:102BE0000201B0910301481659066A067B0659F4A2
:102BF0008FEF9FEFDC018093000190930101A09380
:102C00000201B09303019501B301A2018091C204B6
:102C10009091C3040E94ED14882309F482CF9EEFA3
:102C2000B91AC818D908F80182859385A485B58595
:102C3000880D991DA11DB11D82879387A487B58733
:102C4000D8011A964D915D916D917C911D97C1149B
:102C5000D10409F072CF87C0E114F10409F086CFE6
:102C600016964D915D916D917C9119974115510585
:102C70006105710559F457968D919D910D90BC9108
:102C8000A02D0097A105B10541F521C09E012F5F40
:102C90003F4F0E944710882309F44BCF89819A81C6
:102CA000AB81BC81F801238D348DF9012789203156
:102CB00029F048EF5FEF6FEF7FE004C048EF5FEF70
:102CC00060E070E084179507A607B70730F0C801E9
:102CD0000E94C11181114ACF24CFF80186839783C6
:102CE000A087B18743CFE114F10429F5D8011A96E2
:102CF0004D915D916D917C911D9753968D919D9114
:102D00000D90BC91A02D481759076A077B0798F0D2
:102D10000E94220F882309F404CF409200015092B0
:102D2000010160920201709203018091540281605E
:102D30008093540208C041E0C301B2010E945D0FBC
:102D4000882309F4EECED501F701EE53FD4F9F0124
:102D5000280D391D2E173F0719F08D918193FACF59
:102D6000A80CB91C5ECFF80183899489A589B6891E
:102D700084179507A607B70738F4438B548B658BE8
:102D8000768B848180688483F801848183FD02C00E
:102D9000C10107C0C8010E94E510882309F4C1CE13
:102DA000F7CF0F900F900F900F90DF91CF911F9161
:102DB0000F91FF90EF90DF90CF90BF90AF909F90DA
:102DC0008F907F906F905F904F903F902F900895DD
:102DD000833081F028F4813099F08230A1F0089599
:102DE0008730A9F08830B9F08430D1F48091800028
:102DF0008F7D03C0809180008F778093800008953D
:102E000084B58F7702C084B58F7D84BD089580918D
:102E1000B0008F7703C08091B0008F7D8093B000A9
:102E200008953FB7F8948091F1069091F206A09131
:102E3000F306B091F40626B5A89B05C02F3F19F004
:102E40000196A11DB11D3FBFBA2FA92F982F88272A
:102E5000820F911DA11DB11DBC01CD0142E0660F85
:102E6000771F881F991F4A95D1F70895809186058D
:102E700090918705009761F00E94B51180918605B9
:102E8000909187050E94551F109287051092860524
:102E90000895CF93DF93282F30E0F901E154FF4FDD
:102EA0008491F901E555FF4FD491F901E956FF4F9F
:102EB000C491CC2391F081110E94E816EC2FF0E030
:102EC000EE0FFF1FE357FF4FA591B491EC91ED2357
:102ED00081E090E021F480E002C080E090E0DF91AA
:102EE000CF9108951F93CF93DF93282F30E0F901FE
:102EF000E154FF4F8491F901E555FF4FD491F90159
:102F0000E956FF4FC491CC23C1F0162F81110E94C6
:102F1000E816EC2FF0E0EE0FFF1FED57FF4FA591E5
:102F2000B4919FB7F894111104C08C91D095D82317
:102F300002C0EC91DE2BDC939FBFDF91CF911F91FC
:102F40000895CF93DF93C9EED5E060E08C810E94B5
:102F5000721760E08D810E94721761E08C810E947F
:102F6000721761E08D81DF91CF910C947217CF932E
:102F7000DF93C9EED5E061E08C810E94721761E0B9
:102F80008D810E94721760E08D810E94721760E04F
:102F90008C81DF91CF910C947217CF93DF9390E0E7
:102FA000FC01E555FF4F2491FC01E956FF4F849148
:102FB000882361F190E0880F991FFC01E758FF4FCB
:102FC000C591D491FC01ED57FF4FA591B4916111CA
:102FD00009C09FB7F8948881209582238883EC915B
:102FE0002E230BC0623061F49FB7F8948881322F92
:102FF000309583238883EC912E2B2C939FBF06C0A2
:103000008FB7F894E8812E2B28838FBFDF91CF9163
:1030100008950F931F93CF93DF93D82FC8E060E0FC
:103020008091ED050E947217D0FF02C061E001C0DF
:1030300060E08091EE050E947217D59561E0809165
:10304000ED050E947217C15051F760E08091ED05C7
:103050000E94721761E08091EE050E94721761E094
:103060008091ED050E94721760E08091EE050E944C
:10307000CD1783EC90E00197F1F78091EE050E9467
:1030800049178C0181110AC061E08091EE050E9410
:10309000CD1760E08091EE050E947217C3ECD0E07E
:1030A000CE010197F1F761E08091EE050E94CD1706
:1030B0002197F1F7C8019927DF91CF911F910F91C7
:1030C0000895CF93DF93D82F8091EC05811102C032
:1030D000C0E001C0C0E80E94B71784E40E9409184C
:1030E0000E94A1170E94B7178D2F806C0E940918AB
:1030F0008C2F0E9409180E94A1170E94B717809177
:10310000EB050E940918DF91CF910C94A1178F92C3
:103110009F92AF92BF92CF92DF92EF92FF926B019C
:103120007C010E9411174B015C01C114D104E10420
:10313000F104F1F00E941117DC01CB018819990903
:10314000AA09BB09883E9340A105B10570F321E0AF
:10315000C21AD108E108F10888EE880E83E0981EB3
:10316000A11CB11CC114D104E104F10419F7DDCF95
:10317000FF90EF90DF90CF90BF90AF909F908F9097
:1031800008952FB7F8946091ED067091EE06809146
:10319000EF069091F0062FBF08951F920F920FB681
:1031A0000F9211242F933F938F939F93AF93BF93CD
:1031B0008091ED069091EE06A091EF06B091F00699
:1031C0003091EC0623E0230F2D3720F40196A11D4A
:1031D000B11D05C026E8230F0296A11DB11D209345
:1031E000EC068093ED069093EE06A093EF06B09365
:1031F000F0068091F1069091F206A091F306B0914D
:10320000F4060196A11DB11D8093F1069093F2067C
:10321000A093F306B093F406BF91AF919F918F9165
:103220003F912F910F900FBE0F901F901895CF9345
:10323000DF93E4ECF4E01382128288EE93E0A0E0E6
:10324000B0E084839583A683B7832DE131E0318399
:10325000208325EC30E03587248724EC30E0378765
:10326000268720EC30E0318B208B21EC30E0338B53
:10327000228B22EC30E0358B248B26EC30E0378B30
:10328000268B118E128E138E148EE1E6F5E01382DA
:10329000128284839583A683B7832FE231E0318342
:1032A0002083EDE6F5E01382128284839583A68362
:1032B000B78383E591E091838083128E118E14860B
:1032C000E8E8F5E080E580831182EAE8F5E0158220
:1032D00016821186138682E090E0A0E0B0E0848739
:1032E0009587A687B78713A215A614A685E691E051
:1032F00093A782A717A6C9EED5E084E08C8385E06A
:103300008D8361E084E00E94CD1761E08D810E9491
:10331000CD17EEEDF5E01282118210821382148235
:10332000158216821782108611861286E3EDF5E06B
:1033300012821182108213821482158216821782E1
:10334000108611861286DF91CF910895CF93DF9377
:1033500000D000D0CDB7DEB7789484B5826084BD4C
:1033600084B5816084BD85B5826085BD85B5816089
:1033700085BD80916E00816080936E001092810007
:1033800080918100826080938100809181008160C2
:103390008093810080918000816080938000809183
:1033A000B10084608093B1008091B000816080930F
:1033B000B00080917A00846080937A0080917A00D6
:1033C000826080937A0080917A00816080937A0095
:1033D00080917A00806880937A001092C100E09119
:1033E000D404F091D50482E08083E091D004F09180
:1033F000D1041082E091D204F091D30480E1808363
:103400001092DC04E091D804F091D90486E0808326
:10341000E091D604F091D704808180618083E091AF
:10342000D604F091D704808188608083E091D6042F
:10343000F091D704808180688083E091D604F09178
:10344000D70480818F7D808368EE73E080E090E018
:103450000E9487188DEB91E00E94AC0189E0809377
:10346000F7058091B905882321F084EB95E00E944F
:10347000B511109295051092930510929005109237
:103480008F058AE080938E050E94C1188B0161E050
:1034900080918E050E94CD1761E080918E050E947B
:1034A0007217FFB6F89480910A06811127C0E1EAED
:1034B000F0E08491E5EBF0E09491E82FF0E0EE0F7E
:1034C000FF1FE758FF4FA591B491EC91E92321F438
:1034D00061E08AE00E94721761E08AE00E94CD17E5
:1034E0008CB580618CBD8CB580648CBD61E08DE055
:1034F0000E94CD1761E08BE00E94CD1780910A06F3
:103500008F5F80930A06FFBE82E580938805109244
:10351000890580918805909189050E943B068AE083
:10352000382E8FEF0E9431063A943110FACF8AE894
:1035300095E00E94CA1220E030E0A90160E08AE82C
:1035400095E00E940513F82E8093940581E0F8160B
:1035500049F00E94C118601B710B613D774058F320
:1035600081E056C02AEA31E040E050E068E08AE8B5
:1035700095E00E94051382FF03C0F092950510C0EC
:10358000B4E0FB2E0E94380680939405FA94F11063
:10359000F9CF8A3A11F082E03BC082E08093950532
:1035A00080919505823021F0C12CD12C760105C087
:1035B000C12CD12CE12CA0E4FA2E20E030E0A901AE
:1035C00067E38AE895E00E940513A701960169E286
:1035D0008AE895E00E94051380939405882349F0BA
:1035E0000E94C118601B710B613D774030F388E089
:1035F0000FC080919505823001F520E030E0A901EF
:103600006AE38AE895E00E940513882341F086E08A
:1036100080938F058AE895E00E94E01228C00E94FE
:103620003806807C803C19F483E0809395050E94E5
:1036300038060E9438060E9438068AE895E00E9403
:10364000E01280E5809388051092890581E00E9450
:103650002202882339F084EB95E00E94CE01882372
:1036600031F031C080E00E9422028111F4CF89EF55
:1036700091E00E94AC0103E010E04FE0442E512C99
:10368000612C712C51EE852E54E0952E68E7A62E04
:1036900060E0B62E70EAE72E70E0F72EE4EBCE2E57
:1036A000E0E0DE2E80910401893009F46CC08F3F88
:1036B00009F46CC066E970E080E090E00E94871831
:1036C0000150110979F785EC91E00E94AC0181ED80
:1036D00091E00E94AC0162E082E00E94CD1762E0BE
:1036E00083E00E94CD1764E670E080E090E00E94E5
:1036F00087188AED91E00E94AC0110927702109237
:103700005602109255021092A0021092C10210921D
:103710009E0281E080939D021092780261E082E136
:103720000E94721761E083E10E9472178091B900D4
:103730008E7F8093B9008091B9008D7F8093B9000E
:1037400088E48093B80085E48093BC0080E29BE02D
:10375000909302068093010681E29BE0909300061D
:103760008093FF056FEF80E00E9474036FEF81E0AC
:103770000E94740384EE91E00E94AC01C12CD12C14
:103780007601C394B0C0F501249071C089E08093A4
:103790000401F50184918F3F09F48CCF813009F445
:1037A00044C040F1823009F061C01092B000109224
:1037B000B1008091B00082608093B0008091B10030
:1037C00081608093B100F7018491E82FF0E0EE0F63
:1037D000FF1FED57FF4F859194919093F2058093D1
:1037E000F105F60184918093F00561E089E00E9483
:1037F000CD17A5C114BC15BC84B5826084BD85B548
:10380000816085BDF7018491E82FF0E0EE0FFF1F86
:10381000ED57FF4F85919491F601849180930C06AA
:1038200061E089E00E94CD1776C11092800010926D
:103830008100809181008860809381008091810067
:10384000816080938100F7018491E82FF0E0EE0F12
:10385000FF1FED57FF4F85919491F601849180935E
:103860000B0661E089E00E94CD1711C0282E27FCCD
:1038700021CF61E089E00E94CD17222009F44BC1DD
:10388000F2E02F1609F45BC181E0281218C0809184
:103890008100887F8360809381009092890080926C
:1038A000880040920D0650920E0660920F067092AC
:1038B000100680916F00826080936F00FBCEE2E083
:1038C0002E12F8CE81EE8093B3004092F305509211
:1038D000F4056092F5057092F605809170008260A3
:1038E00080937000E7CE11E0F7E0F31508F010E0E8
:1038F000812F0E949003932D9770B701A60104C0F9
:10390000440F551F661F771F9A95D2F74095642F75
:103910006823812F0E94740360E0832D0E94F203CC
:10392000339480E13812DFCF61E08EE00E94CD1742
:1039300061E08FE00E94CD1761E080E10E94CD1729
:1039400061E081E10E94CD171092060610920506F3
:1039500089E296E0909306018093050180916900C9
:103960008C7F826080936900E89A81E296E0909370
:1039700008018093070180916900837F88608093AC
:103980006900E99A109204061092030683E092E01F
:103990000E94AC0180E48093E90580EC8093EA0505
:1039A0008AE88093EB0580E00E94611881E00E9424
:1039B000611882E00E94611883E00E94611882E130
:1039C00092E00E94AC018AE090E0A0E0B0E0809339
:1039D000E1059093E205A093E305B093E40589E83F
:1039E00096E09093DF058093DE0581E08093E0050B
:1039F00044EF51E060E070E04093D6055093D70566
:103A00006093D8057093D90526ED35E03093D40541
:103A10002093D3058093D5058EE192E00E94AC01FE
:103A20008AE0D82E7E01E5E0EE0EF11C8091E005E3
:103A3000882321F08EED95E00E94110E8091D5052E
:103A4000882321F083ED95E00E94110E80910906F4
:103A5000813009F05DC090910901992319F080939C
:103A6000EC0502C01092EC05809108066D2D0E94B5
:103A7000AB1E382F292F8093150690931606809140
:103A800007060E94AB1E80931706909318061092AB
:103A9000090639832A838B839C838091EC058111ED
:103AA00002C090E001C090E88E010F5F1F4FF80147
:103AB000A081AF3711F4108208C00A2E000CBB0B96
:103AC000A655BE4F8C91890F80833196EE16FF0666
:103AD00079F70E94B71780E40E9409180E94A11785
:103AE0000E94B7178091EA050E940918F801819198
:103AF0008F010E940918E016F106C1F70E94A11774
:103B00000E94B7178091EB050E9409180E94A11727
:103B10000E94E40A8BCF85B5887F856085BD8DE4E2
:103B200087BD409211065092120660921306709261
:103B3000140680916E00826080936E00BBCD8091F0
:103B4000B10087608093B1008DE4BDCE8F929F92CB
:103B5000AF92BF92CF92DF92EF92FF92CF93DF931B
:103B6000EC01688179818A819B81611571058105EC
:103B7000910521F464E279ED8BE597E02DE133EFD7
:103B800041E050E00E94481E49015A019B01AC01EE
:103B9000A7EAB1E40E94671E6B017C01ACEEB4EFB2
:103BA000A50194010E94751EDC01CB018C0D9D1DA9
:103BB000AE1DBF1DB7FF03C00197A109B0488883A0
:103BC0009983AA83BB83BC01CD019F77DF91CF91FD
:103BD000FF90EF90DF90CF90BF90AF909F908F902D
:103BE00008958F929F92AF92BF92CF92DF92EF9201
:103BF000FF9260910D0170910E0180910F019091E3
:103C00001001611571058105910521F464E279EDDA
:103C10008BE597E02DE133EF41E050E00E94481E34
:103C200049015A019B01AC01A7EAB1E40E94671E59
:103C30006B017C01ACEEB4EFA50194010E94751EEE
:103C4000DC01CB018C0D9D1DAE1DBF1DB7FF03C058
:103C50000197A109B04880930D0190930E01A093A4
:103C60000F01B0931001BC01CD019F77FF90EF9041
:103C7000DF90CF90BF90AF909F908F90089560930A
:103C80000D0170930E0180930F0190931001089520
:103C9000052E97FB1EF400940E945F1E57FD07D06F
:103CA0000E947A1E07FC03D04EF40C945F1E5095C0
:103CB0004095309521953F4F4F4F5F4F0895909518
:103CC0008095709561957F4F8F4F9F4F08950E940B
:103CD0009C1EA59F900DB49F900DA49F800D911DDB
:103CE00011240895B7FF0C94671E0E94671E821B63
:103CF000930B0895A1E21A2EAA1BBB1BFD010DC058
:103D0000AA1FBB1FEE1FFF1FA217B307E407F5078B
:103D100020F0A21BB30BE40BF50B661F771F881F67
:103D2000991F1A9469F760957095809590959B01FD
:103D3000AC01BD01CF010895A29FB001B39FC001A6
:103D4000A39F700D811D1124911DB29F700D811DC7
:103D50001124911D0895991B79E004C0991F9617AD
:103D600008F0961B881F7A95C9F780950895EE0F85
:103D7000FF1F0590F491E02D09940F931F93CF93AB
:103D8000DF938230910510F482E090E0E091F70635
:103D9000F091F80620E030E0A0E0B0E0309719F1B3
:103DA000408151810281138148175907C8F0841757
:103DB000950769F4109731F012960C9312971396A9
:103DC0001C9327C00093F7061093F80622C0211514
:103DD000310519F04217530718F49A01BD01EF019C
:103DE000DF01F801DBCF21153105F9F0281B390B74
:103DF0002430310580F48A819B816115710521F0A1
:103E0000FB019383828304C09093F8068093F706A6
:103E1000FE01329644C0FE01E20FF31F819391939D
:103E200022503109398328833AC02091F506309118
:103E3000F606232B41F420911301309114013093A5
:103E4000F6062093F50620911101309112012115FB
:103E5000310541F42DB73EB740911501509116013F
:103E6000241B350BE091F506F091F606E217F307F7
:103E7000A0F42E1B3F0B2817390778F0AC014E5FDA
:103E80005F4F2417350748F04E0F5F1F5093F6061B
:103E90004093F5068193919302C0E0E0F0E0CF01FA
:103EA000DF91CF911F910F910895CF93DF930097EA
:103EB00009F481C0FC01329713821282A091F706A7
:103EC000B091F806109781F420813181820F931F01
:103ED0002091F5063091F6062817390751F5F09331
:103EE000F606E093F50667C0ED0120E030E0CE175E
:103EF000DF0740F44A815B819E0141155105F1F0D5
:103F0000EA01F5CFD383C28340815181840F951F8D
:103F1000C817D90759F488819981840F951F029693
:103F2000918380838A819B819383828321153105CC
:103F300029F4F093F806E093F7063DC0E901FB830E
:103F4000EA8349915991C40FD51FEC17FD0761F41D
:103F500080819181840F951F0296E901998388835E
:103F6000828193819B838A83E0E0F0E012968D91B9
:103F70009C911397009719F0FD01DC01F7CF8D910B
:103F80009C9111979D012E5F3F4F820F931F2091AF
:103F9000F5063091F6062817390769F4309729F4A9
:103FA0001092F8061092F70602C013821282B093A4
:103FB000F606A093F506DF91CF91089581E090E099
:103FC000F8940C94FF1FFB01DC0104C08D9101905B
:103FD000801921F441505040C8F7881B990B08956F
:103FE000FB01DC014150504048F001900D9200204F
:103FF000C9F701C01D9241505040E0F70895F89470
:02400000FFCFF0
:10400200FFFFFFFFFFE109E109010101600100007B
:10401200000000F9068000000000000000750AE2BE
:10402200090C0AC20A3D0A1B0A2F0A000000007B83
:104032000B4E0BD305220B460B320B230B00000059
:10404200004805E209D305D20548054805480500A0
:10405200000000BC050506D305FD059B0555065F5E
:104062000600000000AA0BE209D305D205000000F9
:10407200004805E209D305D205000E0F1011574181
:1040820056457E0030006D00790033005B005F0012
:1040920070007F007B00007E000C00BA009E00CC06
:1040A20000D600F6001C00FE00DE3F065B4F666D88
:1040B2007D077F6F777C395E79710D0A00537461D9
:1040C200727475700053636F72657320496E697400
:1040D2000050696E4D6F646573004D435020426518
:1040E20067696E004D4350323330313720496E6973
:1040F2007469616C697A6564005344204661696C35
:1041020065640047616D65436C6F636B20496E693E
:10411200740054696D65727320496E697400496E4A
:10412200697420446F6E6500417761792073636F13
:1041320072656400486F6D652073636F7265640019
:10414200676F616C2E7761760050617274794D6F82
:0441520064650000A0
:107E0000112484B714BE81FFF0D085E080938100F7
:107E100082E08093C00088E18093C10086E0809377
:107E2000C20080E18093C4008EE0C9D0259A86E02C
:107E300020E33CEF91E0309385002093840096BBD3
:107E4000B09BFECF1D9AA8958150A9F7CC24DD24C4
:107E500088248394B5E0AB2EA1E19A2EF3E0BF2EE7
:107E6000A2D0813461F49FD0082FAFD0023811F036
:107E7000013811F484E001C083E08DD089C08234E0
:107E800011F484E103C0853419F485E0A6D080C0E4
:107E9000853579F488D0E82EFF2485D0082F10E0AE
:107EA000102F00270E291F29000F111F8ED06801E7
:107EB0006FC0863521F484E090D080E0DECF843638
:107EC00009F040C070D06FD0082F6DD080E0C81688
:107ED00080E7D80618F4F601B7BEE895C0E0D1E017
:107EE00062D089930C17E1F7F0E0CF16F0E7DF06D8
:107EF00018F0F601B7BEE89568D007B600FCFDCFD4
:107F0000A601A0E0B1E02C9130E011968C91119780
:107F100090E0982F8827822B932B1296FA010C0160
:107F200087BEE89511244E5F5F4FF1E0A038BF0790
:107F300051F7F601A7BEE89507B600FCFDCF97BE46
:107F4000E89526C08437B1F42ED02DD0F82E2BD052
:107F50003CD0F601EF2C8F010F5F1F4F84911BD097
:107F6000EA94F801C1F70894C11CD11CFA94CF0C13
:107F7000D11C0EC0853739F428D08EE10CD085E9AC
:107F80000AD08FE07ACF813511F488E018D01DD067
:107F900080E101D065CF982F8091C00085FFFCCF94
:107FA0009093C60008958091C00087FFFCCF809118
:107FB000C00084FD01C0A8958091C6000895E0E648
:107FC000F0E098E1908380830895EDDF803219F02E
:107FD00088E0F5DFFFCF84E1DECF1F93182FE3DFCA
:107FE0001150E9F7F2DF1F91089580E0E8DFEE27F6
:047FF000FF270994CA
:027FFE00040479
:0400000300007E007B
:00000001FF
